{
  "contractName": "ContractRegistry",
  "abi": [
    {
      "constant": true,
      "inputs": [
        {
          "name": "",
          "type": "uint256"
        }
      ],
      "name": "contracts",
      "outputs": [
        {
          "name": "",
          "type": "address"
        }
      ],
      "payable": false,
      "stateMutability": "view",
      "type": "function"
    },
    {
      "constant": true,
      "inputs": [
        {
          "name": "",
          "type": "address"
        }
      ],
      "name": "contractInfos",
      "outputs": [
        {
          "name": "author",
          "type": "address"
        },
        {
          "name": "abi",
          "type": "string"
        },
        {
          "name": "registered",
          "type": "bool"
        }
      ],
      "payable": false,
      "stateMutability": "view",
      "type": "function"
    },
    {
      "anonymous": false,
      "inputs": [
        {
          "indexed": true,
          "name": "contractAddress",
          "type": "address"
        },
        {
          "indexed": true,
          "name": "author",
          "type": "address"
        },
        {
          "indexed": false,
          "name": "contractAbi",
          "type": "string"
        }
      ],
      "name": "NewRegistry",
      "type": "event"
    },
    {
      "constant": false,
      "inputs": [
        {
          "name": "contractAddress",
          "type": "address"
        },
        {
          "name": "contractAbi",
          "type": "string"
        }
      ],
      "name": "register",
      "outputs": [
        {
          "name": "success",
          "type": "bool"
        }
      ],
      "payable": false,
      "stateMutability": "nonpayable",
      "type": "function"
    }
  ],
  "bytecode": "0x608060405234801561001057600080fd5b506106bc806100206000396000f300608060405260043610610057576000357c0100000000000000000000000000000000000000000000000000000000900463ffffffff16806332434a2e1461005c578063474da79a146100fd578063eb0bb5311461016a575b600080fd5b34801561006857600080fd5b506100e3600480360381019080803573ffffffffffffffffffffffffffffffffffffffff169060200190929190803590602001908201803590602001908080601f0160208091040260200160405190810160405280939291908181526020018383808284378201915050505050509192919290505050610264565b604051808215151515815260200191505060405180910390f35b34801561010957600080fd5b50610128600480360381019080803590602001909291905050506104be565b604051808273ffffffffffffffffffffffffffffffffffffffff1673ffffffffffffffffffffffffffffffffffffffff16815260200191505060405180910390f35b34801561017657600080fd5b506101ab600480360381019080803573ffffffffffffffffffffffffffffffffffffffff1690602001909291905050506104fc565b604051808473ffffffffffffffffffffffffffffffffffffffff1673ffffffffffffffffffffffffffffffffffffffff1681526020018060200183151515158152602001828103825284818151815260200191508051906020019080838360005b8381101561022757808201518184015260208101905061020c565b50505050905090810190601f1680156102545780820380516001836020036101000a031916815260200191505b5094505050505060405180910390f35b60008060001515600160008673ffffffffffffffffffffffffffffffffffffffff1673ffffffffffffffffffffffffffffffffffffffff16815260200190815260200160002060020160009054906101000a900460ff1615151415156102c957600080fd5b600160008573ffffffffffffffffffffffffffffffffffffffff1673ffffffffffffffffffffffffffffffffffffffff1681526020019081526020016000209050338160000160006101000a81548173ffffffffffffffffffffffffffffffffffffffff021916908373ffffffffffffffffffffffffffffffffffffffff160217905550828160010190805190602001906103659291906105eb565b5060018160020160006101000a81548160ff02191690831515021790555060008490806001815401808255809150509060018203906000526020600020016000909192909190916101000a81548173ffffffffffffffffffffffffffffffffffffffff021916908373ffffffffffffffffffffffffffffffffffffffff160217905550503373ffffffffffffffffffffffffffffffffffffffff168473ffffffffffffffffffffffffffffffffffffffff167f9ae0c36b9499b323d42aa4b4f00f0fb81394b12086a416e9fdf8e9889e40a2f8856040518080602001828103825283818151815260200191508051906020019080838360005b8381101561047957808201518184015260208101905061045e565b50505050905090810190601f1680156104a65780820380516001836020036101000a031916815260200191505b509250505060405180910390a3600191505092915050565b6000818154811015156104cd57fe5b906000526020600020016000915054906101000a900473ffffffffffffffffffffffffffffffffffffffff1681565b60016020528060005260406000206000915090508060000160009054906101000a900473ffffffffffffffffffffffffffffffffffffffff1690806001018054600181600116156101000203166002900480601f0160208091040260200160405190810160405280929190818152602001828054600181600116156101000203166002900480156105ce5780601f106105a3576101008083540402835291602001916105ce565b820191906000526020600020905b8154815290600101906020018083116105b157829003601f168201915b5050505050908060020160009054906101000a900460ff16905083565b828054600181600116156101000203166002900490600052602060002090601f016020900481019282601f1061062c57805160ff191683800117855561065a565b8280016001018555821561065a579182015b8281111561065957825182559160200191906001019061063e565b5b509050610667919061066b565b5090565b61068d91905b80821115610689576000816000905550600101610671565b5090565b905600a165627a7a72305820080f729df09a9e68347e22e516e4db84470a2f77dac5705c7bc384d606b63d8f0029",
  "source": "pragma solidity ^0.4.23;\n\ncontract ContractRegistry {\n\n  struct ContractInfo {\n    address author;\n    string abi;\n    bool registered;\n  }\n\n  address[] public contracts;\n\n  mapping (address => ContractInfo) public contractInfos;\n\n  event NewRegistry(address indexed contractAddress, address indexed author, string contractAbi);\n\n  function register(address contractAddress, string contractAbi) public returns (bool success) {\n    require(contractInfos[contractAddress].registered == false);\n    ContractInfo storage ci = contractInfos[contractAddress];\n    ci.author = msg.sender;\n    ci.abi = contractAbi;\n    ci.registered = true;\n    contracts.push(contractAddress);\n    emit NewRegistry(contractAddress, msg.sender, contractAbi);\n    return true;\n  }\n\n}\n",
  "sourcePath": "/Users/liwimoi/Projects/dapp-test/contracts/eip20/ContractRegistry.sol",
  "compiler": {
    "name": "solc",
    "version": "0.4.23+commit.124ca40d.Emscripten.clang"
  },
  "schemaVersion": "2.0.0",
  "updatedAt": "2018-05-14T05:42:29.206Z"
}